:020000040800F2
:1000000088430020590200086102000863020008CA
:10001000650200086702000869020008000000008D
:100020000000000000000000000000009D0100082A
:100030006D02000800000000F101000859200008CE
:1000400073020008730200087302000873020008BC
:1000500073020008730200087302000873020008AC
:10006000730200087302000873020008730200089C
:10007000730200087302000873020008730200088C
:10008000730200087302000873020008730200087C
:10009000730200087302000873020008730200086C
:1000A000730200087302000873020008730200085C
:1000B000730200087302000873020008730200084C
:1000C000730200087302000873020008730200083C
:1000D0007302000873020008D928000873020008A0
:1000E000730200087302000873020008730200081C
:1000F000730200087302000873020008730200080C
:1001000073020008730200087302000873020008FB
:1001100073020008730200086521000873020008DA
:1001200073020008730200087302000873020008DB
:1001300073020008730200087302000873020008CB
:1001400073020008730200087302000873020008BB
:1001500073020008730200087302000873020008AB
:10016000730200087302000873020008730200089B
:100170007302000873020008730200080000000008
:100180007302000873020008DFF80CD000F0B0F82A
:1001900000480047F52A0008884300202B4B1968C7
:1001A0000868B0E8F04F80F30988BFF36F8F4FF015
:1001B000000080F3118870470000000006480068C6
:1001C000006880F3088862B661B6BFF34F8FBFF353
:1001D0006F8F00DF00BF00BF08ED00E0DFF80C000C
:1001E000016841F470010160704700BF88ED00E0D4
:1001F000EFF30980BFF36F8F144B1A681EF0100FD6
:1002000008BF20ED108A20E9F04F106008B44FF0CD
:10021000500080F31188BFF34F8FBFF36F8F02F050
:10022000DBFF4FF0000080F3118808BC19680868F4
:10023000B0E8F04F1EF0100F08BFB0EC108A80F34A
:100240000988BFF36F8F704700BF00BF2C000020EC
:10025000EFF30580704700000648804706480047D6
:10026000FEE7FEE7FEE7FEE7FEE7FEE7FEE7FEE766
:10027000FEE7FEE70D2100088901000840EA0103BE
:100280009B0703D009E008C9121F08C0042AFAD24C
:1002900003E011F8013B00F8013B521EF9D2704710
:1002A000D2B201E000F8012B491EFBD270470022B8
:1002B000F6E710B513460A4604461946FFF7F0FF65
:1002C000204610BD30B50B460146002020220124F7
:1002D00009E021FA02F59D4205D303FA02F5491B14
:1002E00004FA02F52844151EA2F10102F1DC30BD2A
:1002F000064C074D06E0E06840F0010394E8070073
:1003000098471034AC42F6D3FFF742FF603600083E
:10031000803600084C490A6822F440320A600A68B4
:1003200043681A430A6001684A6822F480724A608E
:1003300001684A68036942EA03224A6001684A6820
:1003400022F040724A6001684A6883681A434A6032
:1003500001688A6822F400628A6001688A68C3685A
:100360001A438A60816A6FF07062D14214D00168CA
:100370008A6822F070628A6001688A68836A1A4318
:100380008A6001688A6822F040528A6001688A683F
:10039000C36A1A438A6009E001688A6822F07062C1
:1003A0008A6001688A6822F040528A6001688A681F
:1003B00022F002028A6001688A68836942EA430285
:1003C0008A60016AC1B101684A6842F400624A6009
:1003D00001684A6822F460424A6001684A68436AD8
:1003E0004FF4604C9CFAACFC5B1EBCFA8CFC03FA2C
:1003F0000CF31A434A6004E001684A6822F4006280
:100400004A600168CA6A22F47002CA620168CA6A54
:10041000838B5B1E42EA0352CA6201688A6822F437
:1004200000728A6001688A68036B42EA43228A602C
:1004300001688A6822F480628A6001688A6840697B
:1004400042EA8020886070470423014000B51749C4
:1004500089B00120087001F02DFC154800F082F9E8
:1004600013488021B038FFF722FF1148102130389F
:10047000FFF71DFF0E4810214830FFF718FF0C480A
:1004800010215830FFF713FF684601F0B9FD084806
:10049000102269462038FFF7F1FE05481022103877
:1004A00004A9FFF7EBFE09B000BD000068000020C2
:1004B000683E002010B50A210348FFF7F8FE034903
:1004C0000020087010BD0000AC3D0020640000203A
:1004D0007047000070B50D4600680D490024884241
:1004E00013D1012A0AD01AB90A480078012805D088
:1004F00019462846FFF7DBFE204670BD1A4606491E
:100500002846FFF7BBFE0124F6E7002070BD00007F
:100510000044004064000020AC3D002038B44FF09F
:10052000000CCDF800C090F83C20012A1BD001221D
:1005300080F83C200A680724092A17D90368DD6877
:100540000A3A02EB420204FA02F225EA0202DA60F7
:100550000A788B680A3A02EB420293400268D46838
:100560002343D36014E038BC0220704703681D6940
:1005700002EB420204FA02F225EA02021A610A7848
:100580008B6802EB420293400268146923431361B3
:100590004A681F24072A15D203685D6B521E02EBBE
:1005A000820204FA02F225EA02025A630A8893B22E
:1005B0000A79521E02EB820293400268546B234375
:1005C00053632CE00D2A15D203681D6BD21F02EB7A
:1005D000820204FA02F225EA02021A630A8893B23E
:1005E0000A79D21F02EB820293400268146B234304
:1005F000136314E00368DD6A0D3A02EB820204FA29
:1006000002F225EA0202DA620A8893B20A790D3A06
:1006100002EB820293400268D46A2343D3621A4BEE
:1006200002689A4208D10A68122A05D1D3F8042335
:1006300042F48002C3F8042302689A421ED10A6879
:10064000102A01D0112A19D1D3F8042342F4000250
:10065000C3F804230968102910D10C490C4A096811
:10066000B1FBF2F101EB810149000091009929B140
:100670000099491E009100990029F9D180F83CC0E9
:1006800038BC00207047000000200140040000201A
:1006900040420F0070B504460025002C03D0206CAA
:1006A000002610B107E0012070BD666484F83C604C
:1006B000204600F01BF8206C10F0100F04D001252C
:1006C00084F83C60284670BD206C20F4885040F0CF
:1006D000020020642046FFF71DFE6664206C20F0B7
:1006E000020040F001002064EAE7000030B587B066
:1006F0000068A0F18041B1F5903129D1002515485D
:10070000016841F480710160006800F4807001901C
:100710003720029003240394049502A90E4800F0A8
:10072000B1F8022002900394049502A90B4800F04E
:10073000A9F802940394049502A9094800F0A2F8CC
:1007400000220521122000F01DFA122000F00EFAFE
:1007500007B030BD443802400008024000000240AB
:100760000004024081B00022009290F83C10012960
:1007700008D0012180F83C1001688B6813F0010F4C
:1007800003D016E0022001B070478B6843F00103EC
:100790008B602A492A4B0968B1FBF3F101EB410157
:1007A0000091009929B10099491E009100990029F2
:1007B000F9D101688B6813F0010F3CD0036C23F072
:1007C000010323F4C06343F4807303644B6813F4A0
:1007D000806F05D0036C23F4005343F4805303640B
:1007E000036C13F4805F04D0436C23F0060343646E
:1007F00000E0426480F83C206FF022020A60114958
:10080000D1F8042312F01F0F07D00068884212D1DC
:10081000816811F0405F0AD00DE00068816811F036
:10082000405F08D1816841F08041816003E08168C8
:1008300041F080418160002001B070470400002039
:1008400040420F000020014090F83510022903D0EB
:100850008021416501207047052180F8351000682E
:10086000016821F0010101600020704731B500F0FE
:1008700015F9044600F012F90099001B8842F9D3DB
:1008800038BD00002DE9F84F0022DFF8E481DFF8E1
:10089000E491DFF8E4A14FF0030E0F27012303FAE0
:1008A00002F50B682B40AB427ED1D1F804C0BCF1FD
:1008B000020F02D0BCF1120F12D14FEAD20C00EBA2
:1008C0008C0CDCF820605407E40E07FA04FB26EADF
:1008D0000B06D1F810B00BFA04F43443CCF82040E6
:1008E00006684FEA420C0EFA0CF4A64391F804B0E5
:1008F0000BF0030B0BFA0CFB4BEA060606604E6886
:10090000012E05D0022E03D0112E01D0122E11D1AE
:100910008668A643D1F80CB00BFA0CFB4BEA06062E
:100920008660466826EA05050E79C6F300169640ED
:1009300035434560C56825EA04048D6805FA0CFC5A
:100940004CEA040CC0F80CC0D1F804C01CF0805F65
:100950006FD0D8F800C04CF4804CC8F800C0D8F86C
:1009600000C00CF4804CCDF800C022F0030C0CF158
:10097000804404F59834D4F808C895072D0F07FA79
:1009800005F62CEA0606A0F1804CBCF5003C56D0DA
:10099000BCF5806C56D0BCF5806C56D0BCF5806C34
:1009A00056D0BCF5806C00E043E054D0BCF5806CC0
:1009B00054D0BCF5806C54D0BCF5806C54D04FF052
:1009C000080C0CFA05FC4CEA060CC4F808C8D9F867
:1009D00000C02CEA030C4C6814F4803F01D04CEAB0
:1009E000030CC9F800C0254CD4F800C02CEA030C55
:1009F0004D6815F4003F01D04CEA030CC4F800C068
:100A0000DAF800C02CEA030C4C6814F4801F01D003
:100A10004CEA030CCAF800C0194CD4F800C02CEA08
:100A2000030C4D6815F4001F01D04CEA030CC4F808
:100A300000C0521C102AFFF431AFBDE8F88F4FF010
:100A4000000CBEE74FF0010CBBE74FF0020CB8E71B
:100A50004FF0030CB5E74FF0040CB2E74FF0050C74
:100A6000AFE74FF0060CACE74FF0070CA9E700002A
:100A700044380240003C0140083C0140043C014035
:100A80000C3C01404269514041617047002A01D04D
:100A90008161704709048161704700000148006866
:100AA000704700000000002002480168491C0160F6
:100AB000704700000000002010B50B48016841F4A9
:100AC00000710160016841F480610160016841F4D6
:100AD00080710160032000F089F80F2000F006F813
:100AE00000F018F8002010BD003C024010B504468C
:100AF00007484FF47A720068B0FBF2F000F026FC71
:100B000000222146501E00F03DF8002010BD0000DC
:100B10000400002010B5032000F068F80022114600
:100B20006FF00B0000F02EF8002211466FF00A0063
:100B300000F028F8002211466FF0090000F022F8BA
:100B400000221146501F00F01DF800221146101F10
:100B500000F018F800220F21901E00F013F8002278
:100B60000F21BDE81040501E00F00CB800F01F012E
:100B7000012202FA01F14009800000F1E020C0F8F2
:100B80000011704710B4184B1B68C3F30223C3F164
:100B9000070CBCF1040F01D94FF0040C1C1D072CED
:100BA00001D2002300E0DB1E012404FA0CFCACF1AE
:100BB000010C0CEA0101994004FA03F35B1E1A4090
:100BC0001143002808DA00F00F0000F1E0200901CD
:100BD00080F8141D10BC704700F1E020090180F876
:100BE000001410BC704700000CED00E000F007009E
:100BF000064A11684FF6FF03194041EA002040F011
:100C0000FD7040F080601060704700000CED00E067
:100C10002DE9F05F04460E46DFF8D091D9F80000C8
:100C2000F7B200F00F00B0420AD289F80070D9F88C
:100C3000000000F00F00B04202D00120BDE8F09F9C
:100C40002078DFF8AC8110F0020F07D0D8F8000050
:100C5000A16820F0F0000843C8F80000207810F0E8
:100C6000010F51D060686349012808D002280DD0D7
:100C700003280BD0096811F0020F2ED00AE0096892
:100C800011F4003F06D10120BDE8F09F096811F082
:100C9000007F1FD0D8F8001021F003010843C8F8E6
:100CA0000000FFF7FBFE0546606841F2883A012824
:100CB00016D0022829D003283CD0D8F8000010F024
:100CC0000C0F51D0FFF7EAFE401B504547D90320D7
:100CD000BDE8F09F0120BDE8F09F0120BDE8F09F36
:100CE000D8F8000000F00C0004283DD0FFF7D6FE35
:100CF000401B504502D90320BDE8F09FD8F8000002
:100D000000F00C000428F1D12EE0D8F8000000F02B
:100D10000C00082828D0FFF7C1FE401B504502D91F
:100D20000320BDE8F09FD8F8000000F00C00082870
:100D3000F1D119E0D8F800004FF00C0B3BEA0000AD
:100D400012D0FFF7ABFE401B504502D90320BDE88F
:100D5000F09FD8F800003BEA0000F2D104E0D8F898
:100D6000000010F00C0FADD1D9F8000000F00F001A
:100D7000B0420AD989F80070D9F8000000F00F00DD
:100D8000B04202D00120BDE8F09F207810F0040F9F
:100D900007D0D8F80000E16820F4E0500843C8F814
:100DA0000000207810F0080F08D0D8F80000216962
:100DB00020F4604040EAC100C8F8000000F052F89A
:100DC000D8F80010F02292FAA2F201F0F001B2FA83
:100DD00082F2D140084A515CC840084908600F209F
:100DE000FFF784FE0020BDE8F09F0000003C0240B9
:100DF0000838024000380240303600080400002065
:100E000001480068704700000400002000B5FFF7AB
:100E1000F7FF074909684FF4E05292FAA2F201F491
:100E2000E051B2FA82F2D140024A515CC84000BDA2
:100E3000083802403036000800B5FFF7E1FF0749E7
:100E400009684FF4604292FAA2F201F46041B2FAEA
:100E500082F2D140024A515CC84000BD08380240CD
:100E60003036000810B41F48006810F00C011E480E
:100E70001BD04FEA600C042916D0082915D11B4A53
:100E8000116801F03F01136813F4800F47F6C07337
:100E90000DD0BCFBF1F01168194093FAA3F3B3FA3B
:100EA00083F3D94048430CE0604610BC7047B0FB68
:100EB000F1F01168194093FAA3F3B3FA83F3D94020
:100EC000484311684FF4403292FAA2F201F44031E3
:100ED000B2FA82F2D140491C4900B0FBF1F010BCDB
:100EE00070470000083802400024F4000438024033
:100EF0002DE9F84F0446DFF81C842078A8F1040798
:100F000010F0010FA7F1040560D0D8F8000000F040
:100F10000C00042809D0D8F8000000F00C000828C4
:100F20000DD1386810F4800F09D0286810F4003F04
:100F30004CD06068002849D10120BDE8F88F606876
:100F4000B0F5803F14D0B0F5A02F16D0286820F45B
:100F500080302860286820F480202860606810B302
:100F6000FFF79CFD0646286810F4003F0ED02DE0E8
:100F7000286840F480302860F0E7286840F480203A
:100F80002860286840F480302860E7E7FFF786FD96
:100F9000801B642802D90320BDE8F88F286810F46C
:100FA000003FF3D012E0FFF779FD0646286810F401
:100FB000003F0BD0FFF772FD801B642802D903208D
:100FC000BDE8F88F286810F4003FF3D12078DFF8EF
:100FD000489310F0020F4FF0000663D0D8F80000DD
:100FE0004FF0F80B10F00C0F16D0D8F8000000F0FE
:100FF0000C00082803D1386810F4800F0CD0E0688A
:10100000C8B30120C9F80000FFF748FD82462868F0
:1010100010F0020F16D022E0286810F0020F05D061
:10102000E068012802D00120BDE8F88F28689BFA0B
:10103000ABF22169B2FA82F220F0F8009140084345
:1010400028602FE0FFF72AFDA0EB0A00022802D952
:101050000320BDE8F88F286810F0020FF2D028684E
:101060009BFAABF22169B2FA82F220F0F8009140CB
:101070000843286016E0FFE7C9F80060FFF70EFD9F
:101080008246286810F0020F0CD0FFF707FDA0EB96
:101090000A00022802D90320BDE8F88F286810F062
:1010A000020FF2D1207810F0080F34D09B48DFF8FF
:1010B00070B26169C1B101210160FFF7EFFC8246A6
:1010C000DBF8000010F0020F25D1FFF7E7FCA0EBE2
:1010D0000A00022802D90320BDE8F88FDBF80000DF
:1010E00010F0020FF1D016E00660FFF7D7FC824641
:1010F000DBF8000010F0020F0DD0FFF7CFFCA0EBE3
:101100000A00022802D90320BDE8F88FDBF80000AE
:1011100010F0020FF1D1207810F0040F43D0814875
:10112000016841F080510160006800F0805000903B
:10113000DFF8F4B1DBF8000040F48070CBF8000079
:10114000FFF7ACFC8246DBF8000010F4807F0DD185
:10115000FFF7A4FCA0EB0A00022802D90320BDE897
:10116000F88FDBF8000010F4807FF1D0A068DFF882
:10117000BCB1012818D005281DD0DBF8000020F0F4
:101180000100CBF80000DBF8000020F00400CBF8F1
:101190000000A06868B3FFF781FC8246DBF800001E
:1011A00010F0020F14D03CE0DBF8000040F001002A
:1011B000CBF80000EDE7DBF8000040F00400CBF8CE
:1011C0000000DBF8000040F00100CBF80000E0E791
:1011D000FFF764FCA0EB0A0141F28830814202D99A
:1011E0000320BDE8F88FDBF8000010F0020FEFD00D
:1011F00017E0FFF753FC8246DBF8000010F0020F07
:101200000FD0FFF74BFCA0EB0A0141F2883081427E
:1012100002D90320BDE8F88FDBF8000010F0020FC0
:10122000EFD1A069F0B3D8F8001001F00C01082943
:101230006CD0022810D0C9F86060FFF72FFC04467C
:10124000286810F0007F5ED0FFF728FC001B022802
:1012500055D90320BDE8F88FC9F86060FFF71EFC80
:101260000646286810F0007F0BD0FFF717FC801BA4
:10127000022802D90320BDE8F88F286810F0007F0B
:10128000F3D1216AE0694FF0FF3340EA010247F6EB
:10129000C07191FAA1F1606AB1FA81F100FA01F12D
:1012A000A06A00E02FE003EB50004FF4403393FAC4
:1012B000A3F3B3FA83F39840084310434FF07062EE
:1012C00092FAA2F2E16AB2FA82F2914008433860DF
:1012D0000120C9F86000FFF7E1FB0446286810F020
:1012E000007F10D1FFF7DAFB001B022802D9032090
:1012F000BDE8F88F286810F0007FF3D003E028687D
:1013000010F0007FA0D10020BDE8F88F0120BDE8DB
:10131000F88F00000838024000004742800E474224
:10132000743802404038024000700040703802407B
:101330004FF0E021042804D0086920F0040008617F
:101340007047086940F0040008617047401EB0F122
:10135000807F01D3012070474FF0E0214861044AAB
:10136000F02010700020886107200861002070477D
:1013700023ED00E07047704710B490F83820012A40
:1013800025D0012280F83820022380F83930D1F8A6
:1013900004C00B68CC6843EA0C03D1F808C04CEADF
:1013A000040C43EA0C03D1F810C043EA0C03D1F853
:1013B00014C0896943EA0C0319430368596480F82F
:1013C0003920002180F8381010BC0020704710BC74
:1013D0000220704710B490F83820012A2AD0012347
:1013E00080F83830022280F839200268D2F804C030
:1013F0002CF0700CC2F804C00268D2F804C00C686B
:101400004CEA040CC2F804C00268D2F808C02CF000
:10141000800CC2F808C00268D2F808C049684CEADB
:101420000101916080F83930002180F8381010BC3B
:101430000020704710BC022070470168CA6842F063
:101440000102CA600068016841F0010101600020EA
:101450007047704770B50446206801694FF0000579
:1014600011F0020F17D0C16811F0020F13D0E91E5E
:101470000161012020762068806910F0030F03D0FD
:101480002046FFF7E6FF05E0204600F0C7F82046BB
:1014900000F074F925762068016911F0040F18D066
:1014A000C16811F0040F14D06FF004010161022033
:1014B00020762068806910F4407F03D02046FFF733
:1014C000C8FF05E0204600F0A9F8204600F056F9D4
:1014D00025762068016911F0080F18D0C16811F055
:1014E000080F14D06FF008010161042020762068F5
:1014F000C06910F0030F03D02046FFF7AAFF05E0F4
:10150000204600F08BF8204600F038F92576206858
:10151000016911F0100F18D0C16811F0100F14D02C
:101520006FF010010161082020762068C06910F476
:10153000407F03D02046FFF78CFF05E0204600F0F7
:101540006DF8204600F01AF925762068016911F03F
:10155000010F09D0C16811F0010F05D06FF0010132
:101560000161204600F026F92068016911F0800F22
:1015700009D0C16811F0800F05D06FF080010161C2
:101580002046FFF7F7FE2068016911F0400F09D0EF
:10159000C16811F0400F05D06FF040010161204695
:1015A00000F016F92068016911F0200F0BD0C16816
:1015B00011F0200F07D06FF0200101612046BDE837
:1015C0007040FFF7D8BE70BD00B5104B0268002117
:1015D000022085B09A420AD14FF420620092CDE9F0
:1015E00001010120CDE90310694609480AE0094BD1
:1015F0009A4209D110220092CDE90101CDE90310F0
:1016000069460548FFF73EF905B000BD00000140FE
:10161000001002400004004000040240704770B512
:1016200004460D4694F8380001280DD0012684F8B0
:101630003860022084F8390042B1042A1AD0082AFE
:101640002DD00C2A53D13EE0022070BD29462068DF
:1016500000F0FBFD2068816941F00801816120688C
:10166000816921F004018161206881692A6911433F
:1016700081613CE02946206800F019FE20688169FC
:1016800041F4006181612068816921F48061816198
:10169000206881692A6941EA0221816127E029469F
:1016A000206800F03AFE2068C16941F00801C1617C
:1016B0002068C16921F00401C1612068C1692A69FB
:1016C0001143C16113E02946206800F05CFE2068E8
:1016D000C16941F40061C1612068C16921F4806180
:1016E000C1612068C1692A6941EA0221C16184F8A7
:1016F0003960002084F8380070BD10B50446002C15
:1017000003D094F8390010B107E0012010BD00208B
:1017100084F83800204600F00DF8022084F83900E3
:10172000211D206800F02AFD012084F839000020E6
:1017300010BD000081B00068A0F18041B1F580319A
:101740000DD011F57C4108D10A48016841F0020131
:101750000160006800F00200009001B07047064888
:10176000016841F001010160006800F00100009093
:1017700001B070474038024044380240704710B50D
:1017800004460122206800F053FD2168A1F1804049
:10179000B0F5803002D0B0F5806003D1486C40F4E1
:1017A000004048642068016841F0010101600020A8
:1017B00010BD000000680449884203D18114034829
:1017C000FFF760B97047000000100040000C0240B5
:1017D0007047704710B5044622681068D168526996
:1017E00000F00F03002B0AD110F0200F07D011F0EA
:1017F000200F04D02046BDE8104000F011BE002BA1
:101800006BD002F0010301F4907C53EA0C0364D026
:1018100010F0010F06D011F4807F03D0E36B43F08A
:101820000103E36310F0040F06D012F0010F03D0A0
:10183000E36B43F00203E36310F0020F06D012F0F3
:10184000010F03D0E36B43F00403E36310F0080FD0
:1018500006D012F0010F03D0E26B42F00802E263FF
:10186000E26B002A2ED010F0200F05D011F0200FCF
:1018700002D0204600F0D4FD20684069C0F38010FB
:10188000E16B01F00801084321D0204600F0ADFDD6
:101890002068416911F0400F15D0416921F04001E5
:1018A0004161606B58B118490165606BFEF7CCFF70
:1018B000002807D0606B016DBDE810400847204646
:1018C000FFF787FF10BD2046FFF783FF10BD2046BE
:1018D000FFF77FFF0020E06310BD10F0800F07D0FE
:1018E00011F0800F04D02046BDE8104000F084BF06
:1018F00010F0400FF0D011F0400FEDD02046BDE8C1
:10190000104000F080BD0000DB23000870B50446E5
:10191000002C04D094F83900002510B106E0012015
:1019200070BD84F83850204600F022F8242084F856
:1019300039002068C16821F40051C160204600F0E0
:10194000B9FD2068016921F4904101612068416975
:1019500021F02A0141612068C16841F40051C16051
:10196000E563202084F8390084F83A00002070BD37
:1019700000B587B00068A0F18041B1F588411ED163
:101980001048016841F400310160006800F4003043
:1019900001900C200290022003900120049003206B
:1019A00005900720069002A90748FEF76BFF00226A
:1019B00005212620FFF7E6F82620FFF7D7F807B025
:1019C00000BD0000403802400000024090F83A306C
:1019D000202B01D002207047D1B1CAB190F8383025
:1019E000012B17D081628285C2850021C16322222A
:1019F00080F83A2080F8381001684A6942F0010204
:101A00004A610068C16841F49071C160002070476C
:101A1000012070470220704738B500681C49884291
:101A200034D11C4C20784F2804D1012249141A4883
:101A3000FFF72CF817482278801E00210D2A0BD0C2
:101A40000A2A09D04378092B00D14170134B417801
:101A50005A54491C417002E04170012101700F4845
:101A60004038006801684168009101684168009150
:101A7000016841680091016840680090BDE8384005
:101A80000648012203494038FFF7A0BF38BD0000D7
:101A90000044004066000020000C0240AC3D0020E5
:101AA0002DE9F84304460D4691461E4694F8390048
:101AB000202802D00220BDE8F8834DB3B9F1000F11
:101AC00026D094F83800012825D0012084F8380069
:101AD0000027E763212084F83900FEF7DFFF804606
:101AE000A4F82490A4F82690E08CA0B3E08C401ECB
:101AF000E084A068B0F5805F10D0434600228021CA
:101B00002046009600F0ABFEF0B10320BDE8F8835C
:101B10000120BDE8F8830220BDE8F8834346002297
:101B200080212046009600F09AFE10B10320BDE807
:101B3000F88328882168C0F308004860206908B14C
:101B40006D1C05E0AD1C03E0216815F8010B486031
:101B5000E08C0028CAD1434600224021204600964E
:101B600000F07DFE10B10320BDE8F883202084F84A
:101B7000390084F838700020BDE8F8837047000011
:101B800038B5264C0025C4F801506571FEF792FC6B
:101B900041208DF800000A23012269462048FFF702
:101BA0007FFF54208DF800000A23012269461C485B
:101BB000FFF776FF0D208DF800000A230122694609
:101BC0001748FFF76DFF0A208DF800000346012239
:101BD00069461348FFF764FF012020704FF4FA7044
:101BE000FEF744FE05230022611C0D48FEF772FC3F
:101BF000012806D1601C01784F2902D140784B287A
:101C000002D02570012038BD06A000F06BFE0FA0A9
:101C100000F068FEFEF74EFC002038BD6C0000208E
:101C20006C3D002041542B43575341503D224269A3
:101C30006E68204C6520436869222C2270617373A2
:101C4000776F7264222C332C300D0A0041542B43E1
:101C5000574D4F44453D330D0A00000000B585B097
:101C600000F02EF94FF44060009001200190002018
:101C70000290039069460748FEF704FE00210648DB
:101C8000FFF77DFD05B0042103485DF804EBFFF785
:101C900076BD0000000C0240D03E002010B500F0E0
:101CA0005FF9BDE8104000210148FFF768BD000062
:101CB0000C3F00207FB512481049002401604FF40A
:101CC0008031C0E90114046184610462C4628462E9
:101CD0000125C460C56145610463FEF7DBFC08B102
:101CE000FEF7F6FB0095CDE9015469460448FEF77E
:101CF00015FC002801D0FEF7EBFB7FBD0020014062
:101D0000683E00202DE9F04F664887B00024016846
:101D100041F010010160016801F0100105910168B6
:101D200041F004010160016801F0040105910168BE
:101D300041F080010160016801F0800105910168B6
:101D400041F001010160016801F0010105910168A4
:101D500041F002010160016801F002010591016892
:101D600041F0080101600068002200F008000590C1
:101D700038214D48FEF78AFE4FF2100B00225946DB
:101D80004A48FEF783FE382000900126CDE9016421
:101D9000694645480394FEF775FD0820009002252A
:101DA000CDE901540527CDE9034769464048FEF7D0
:101DB00069FDDFF800810096CDE9018469463E485F
:101DC000FEF760FD10200090CDE901544FF00609A8
:101DD000CDE9034969463848FEF754FDE0200090FC
:101DE000CDE90154CDE9034769463348FEF74AFD82
:101DF0004FF0040ACDE900A4694630480294FEF78A
:101E000041FD68020090CDE90154CDE903476946E0
:101E10002A48FEF737FDCDF800B0CDE901646946E8
:101E200022480394FEF72EFD4FF4A4500090CDE914
:101E30000154CDE9034969461D48FEF723FD2802F8
:101E4000CDE9000469461C480294FEF71BFD4FF4DF
:101E5000E0500090CDE901540A20CDE903406946E5
:101E60001548FEF70FFD2020CDE9000469460F4814
:101E70000294FEF707FD4FF4107000901220CDE998
:101E80000106CDE9034A69460C48FEF7FBFC0095C4
:101E9000CDE9018469460448FEF7F4FC07B0BDE8CB
:101EA000F08F00003038024000100240000C024069
:101EB000000802400000121000000240000402402E
:101EC00010B5254890B0002422498460C0E9001470
:101ED0002249C0E903144461FFF70FFC08B1FEF783
:101EE000F7FA0E940EA91C480F94FFF773FA08B185
:101EF000FEF7EEFA40F63300019060200594009062
:101F00000294039404940022694606941248FFF751
:101F100086FB08B1FEF7DCFA042269460E48FFF79B
:101F20007EFB08B1FEF7D4FA0794089409944FF4A5
:101F300000500A94CDE90B4007A907480D94FFF71C
:101F40001BFA08B1FEF7C4FA0348FFF73DFB10B0D7
:101F500010BD000000000140D03E00203F90020074
:101F600010B517488AB01549016040F2E7310024E6
:101F7000C0E9011440F28F61C0E90314FFF7BDFB13
:101F800008B1FEF7A5FA079407A90D480894FFF7D2
:101F900021FA08B1FEF79CFA6020CDE90004029412
:101FA0000022694606480494FFF739FB08B1FEF7A2
:101FB0008FFA0348FFF708FB0AB010BD0004004089
:101FC0000C3F00200C4810B50A4901604FF416512F
:101FD0004160002181600C22C160C0E9041281616E
:101FE000C161FFF793FCBDE810400122034902489C
:101FF000FFF7ECBC004400406C3D00206600002070
:1020000010B5044610220649FEF738F9044904F1D8
:1020100010001022BDE810401031FEF72FB900006B
:1020200000000E08FFF73AFE0A4CFFF7A9FD48B181
:10203000012291032046FEF729FD4FF47A7000F04B
:1020400083FDF2E700224FF480412046FEF71EFD9B
:10205000F3E70000000C024010B5FEF725FDBDE8D7
:10206000104000F07EBD000030B5264893B000253A
:10207000016841F080510160006800F080501190CB
:102080002148016841F4804101600068022400F4A5
:102090008040119001200090000401908001CDE962
:1020A0000640082008904FF4A870CDE909040720E5
:1020B0000B906846FEF71CFF08B1FEF709FA0CA961
:1020C0000F2081E831004FF4A0500F904FF4805062
:1020D000109005210CA8FEF79BFD08B1FEF7F8F95A
:1020E000FEF78EFE4FF47A71B0FBF1F0FFF72EF998
:1020F0000420FFF71DF900220F21501EFEF742FDBC
:1021000013B030BD40380240007000400F480168F5
:1021100041F4700101600E48016841F00101016065
:102120000C4A00211160026822F4102222F0807211
:102130000260031D084A1A60026822F480220260CD
:1021400006480160064958060860704788ED00E0BF
:102150000038024008380240103000240C38024099
:1021600008ED00E010B50448FFF774F9BDE8104031
:102170000148FFF762B90000483F0020F0B4026850
:10218000264BDFF89CC0274D274E284C98420AD09A
:10219000B0F1804F07D0604505D0A84203D0B042CF
:1021A00001D0A04203D122F070024F683A43984216
:1021B0001ED0B0F1804F1BD0604519D0A84217D077
:1021C000B04215D0A04213D0A0F1804CBCF5A03C89
:1021D0000ED0BCF5806C0BD0BCF5806C08D01CF523
:1021E000983C05D0BCF5806C02D0BCF5806C05D164
:1021F00022F44072D1F80CC04CEA020202608A68F4
:10220000C2620A688262984201D0A04201D1096983
:10221000016301214161F0BC7047000000000140F2
:102220000004004000080040000C00400004014091
:1022300001238B40D0F820C02CEA03030362036A19
:1022400002FA01F119430162704710B4026A22F0E8
:1022500001020262036A4268D0F818C02CF0700CC8
:102260002CF0030C0C6844EA0C0C23F002038C687D
:102270002343A0F18044B4F5803402D0B4F58064E7
:102280000DD123F00803CC68234323F0040322F488
:10229000807222F400724C6922438C6922434260AE
:1022A000C0F818C049684163036210BC704710B49D
:1022B000026A22F010020262036A4268D0F818C073
:1022C0002CF4E04C2CF4407C0C684CEA042C23F0F9
:1022D00020038C6843EA0413A0F18044B4F58034F1
:1022E00002D0B4F5806410D123F08003CC6843EAB7
:1022F000041323F0400322F4806222F400624C694C
:1023000042EA84028C6942EA84024260C0F818C042
:1023100049688163036210BC704710B4026A22F4FA
:1023200080720262036A4268D0F81CC02CF0700C04
:102330002CF0030C0C6844EA0C0C23F400738C683A
:1023400043EA0423A0F18044B4F5803402D0B4F50C
:10235000806410D123F40063CC6843EA042323F49F
:10236000806322F4805222F400524C6942EA041243
:102370008C6942EA04124260C0F81CC04968C1631B
:10238000036210BC704710B4026A22F480520262E9
:10239000D0F820C04268C36923F4E04323F44073BB
:1023A0000C6843EA04232CF4005C8C684CEA043C7F
:1023B000A0F18044B4F5803402D0B4F5806404D137
:1023C00022F480424C6942EA84124260C361496847
:1023D0000164C0F820C010BC704710B5806B0021AC
:1023E000C185C184FFF7F5F910BD0168CA6822F400
:1023F0009072CA6001684A6922F001024A61202194
:1024000080F83A10704710B50168CA6822F040029F
:10241000CA60202180F83910FFF7B0FB002010BD02
:1024200010B590F83A10222901D0022010BD816821
:10243000B1F5805F11D0016919B30168496801F0F5
:102440007F02816A4B1C83620A70C18D491E090498
:10245000090CC1851CD0002010BD816A02693AB107
:1024600002685268D2B20A80816A491C8162ECE734
:1024700002685268C2F308020A80816A891C81627C
:10248000E3E701684A68816A4B1C83620A70DCE7F3
:102490000168CA6822F49072CA6001684A6922F031
:1024A00001024A61202180F83A10FFF7B5FA0020B6
:1024B00010BD00002DE9F04104462068016921F4B7
:1024C0004051E268114301612068C16821F4037141
:1024D00021F414412369A268D4F81CC01A4363692B
:1024E00043EA0C031A431143C1602068416921F497
:1024F0004071A26911434161E069BC4ABC49BD4DCC
:102500003226B0F5004F5ED02068884202D090425B
:1025100040F01281FEF790FC00EBC00101EB0010CF
:1025200061688900B0FBF1F7FEF786FC00EBC001A3
:1025300001EB001061688900B0FBF1F0A5FB001011
:1025400040096FF01801484307EB800006EB0010CC
:10255000A5FB0010400900F0F007FEF76DFC00EB52
:10256000C00101EB001061688900B0FBF1F0A5FB30
:102570000010400907EB0017FEF75EFC00EBC001FE
:1025800001EB001061688900B0FBF1F8FEF754FC24
:1025900000EBC00101EB001061688900B0FBF1F0B5
:1025A000A5FB001040096FF01801484308EB8000BC
:1025B00006EB0010A5FB00102168C0F3431038445F
:1025C0008860BDE8F0812068884201D0904259D1EE
:1025D000FEF732FC00EBC00101EB0010616849001E
:1025E000B0FBF1F0A5FB001040090701FEF724FC49
:1025F00000EBC00101EB001061684900B0FBF1F88D
:10260000FEF71AFC00EBC00101EB00106168490005
:10261000B0FBF1F0A5FB001040096FF01801484332
:1026200008EB800006EBC000A5FB0010400900F09D
:10263000F80007EB4007FEF7FFFB00EBC00101EBE2
:10264000001061684900B0FBF1F8FEF7F5FB00EB04
:10265000C00101EB001061684900B0FBF1F0A5FB7F
:10266000001040096FF01801484308EB800006EBAA
:10267000C000A5FB00102168C0F3421038448860F8
:10268000BDE8F081FEF7C2FB00EBC00101EB0010DA
:1026900061684900B0FBF1F0A5FB0010400907019B
:1026A000FEF7B4FB00EBC00101EB001061684900CC
:1026B000B0FBF1F8FEF7AAFB00EBC00101EB001044
:1026C00061684900B0FBF1F0A5FB001040096FF014
:1026D0001801484308EB800006EBC000A5FB001082
:1026E000400900F0F80007EB4007FEF78FFB00EB16
:1026F000C00101EB001061684900B0FBF1F8FEF782
:1027000085FB00EBC00101EB001061684900B0FBE4
:10271000F1F0A5FB001040096FF01801484308EBE9
:10272000800006EBC000A5FB00102168C0F342103A
:1027300038448860BDE8F081FEF768FB00EBC0011B
:1027400001EB001061688900B0FBF1F7FEF75EFB5A
:1027500000EBC00101EB001061688900B0FBF1F0F3
:10276000A5FB001040096FF01801484307EB8000FB
:1027700006EB0010A5FB0010400900F0F007FEF783
:1027800045FB00EBC00101EB001061688900B0FB64
:10279000F1F0A5FB0010400907EB0017FEF736FB30
:1027A00000EBC00101EB001061688900B0FBF1F89B
:1027B000FEF72CFB00EBC00101EB00106168890003
:1027C000B0FBF1F0A5FB001040096FF01801484381
:1027D00008EB800006EB0010A5FB00102168C0F399
:1027E000431038448860BDE8F081000000140140C7
:1027F000001001401F85EB5190F83910212901D0BC
:10280000022070478168B1F5805F0CD0016A4A1CD4
:102810000262026809785160C18C491E0904090CE2
:10282000C18410D019E0016A02680988C1F3080167
:102830005160016919B1016A491C0162ECE7016A42
:10284000891C0162E8E70168CA6822F08002CA6058
:102850000068C16841F04001C160002070472DE967
:10286000F0410446069D884617461E4620680068CB
:1028700038EA000020D00020B84227D1B5F1FF3F50
:102880001CD025B1FEF70AF9801BA84216D9206892
:10289000C16821F4D071C1602068416921F0010153
:1028A0004161202084F8390084F83A00002084F83F
:1028B00038000320BDE8F0810120DDE720680068D2
:1028C00038EA000005D00020B842D7D00020BDE88B
:1028D000F0810120F8E700000148FEF77BBF00000F
:1028E0006C3D00200FB4054B10B503A9044A0298B3
:1028F00000F018F810BC5DF814FB0000DD2A000899
:102900007800002002E008C8121F08C1002AFAD18E
:1029100070477047002001E001C1121F002AFBD15F
:10292000704700002DE9FF4F8BB09A460F460546D1
:10293000002606E025280BD052460D9990476D1CC5
:10294000761C28780028F5D10FB03046BDE8F08F0E
:102950000024A0460122604900E0044315F8013F2D
:10296000203B02FA03F00842F7D128782E2817D12D
:1029700015F8010F44F004042A280ED06FF02F023E
:102980002878A0F1300109290AD808EB880102EB68
:10299000410100EB01086D1CF2E757F8048B6D1C38
:1029A000287869283ED006DC0028CDD063280BD0DB
:1029B000642804D136E0732810D075284BD05246D5
:1029C0000D999047761C85E017F8040B8DF80000F0
:1029D00000208DF80100E946012003E057F8049B30
:1029E0004FF0FF3061074FF0000401D40AE0641C8F
:1029F00044450DDA8442FADB19F804100029F6D1B7
:102A000006E0641C8442FCDB19F804100029F8D1AC
:102A1000264404E019F8010B52460D999047641EB4
:102A2000F8D257E001CF4FF00A0B002802DA4042FB
:102A30002D2102E0210504D52B218DF82410012140
:102A400003E0E10705D02021F7E70DF12009089107
:102A50000CE00021F9E701CF4FF00A0BF9E75946E6
:102A6000FDF730FC01F1300209F8012D0028F6D104
:102A7000ADEB090000F1200B600701D44FF0010815
:102A8000D84502DDA8EB0B0000E0002080460024C2
:102A900006E009A85246005D0D999047641C761C1B
:102AA00008988442F5DB04E0302052460D999047A7
:102AB000761CB8F10001A8F10108F5DC05E019F871
:102AC000010B52460D999047761CBBF10001ABF10A
:102AD000010BF4DC6D1C34E70928010013B56423F5
:102AE000012269460248FEF7DBFF00981CBD00008A
:102AF0006C3D002086B0FDF7DFFFFFF7B5FAFFF76A
:102B000001F9FDF7A3FCFFF75DFAFFF7A7F8094805
:102B100090E80E100069CDE9033C02920191059006
:102B2000002101A800F027F80349086000F014F81C
:102B3000FEE70000403600087400002000218428D1
:102B400000D0C11C0846704710B5002800D10120F4
:102B500000F0CCFA002010BD10B500F0FFFA002004
:102B600010BD10B500F088FC012803D0BDE810406E
:102B700000F0E8BB10BD30B585B004460D46B4F991
:102B80000800FFF7DBFF002104AA029101920391E4
:102B90000090208A2B4682B22168606800F0E8FB32
:102BA000012802D005B0002030BD049805B030BD2A
:102BB00070B504460B4D28684460E868844206D22C
:102BC0002868011D686BBDE8704000F0F4B9286802
:102BD000011D286B00F0EFF9A86A844200D2AC62B4
:102BE00070BD00002C00002070B58600002908D0C0
:102BF0000D467DB15C2000F037F9044634B1256301
:102C000009E0304600F030F90546F2E7284600F0CA
:102C10002FFA00E0002424B1A5223146206BFDF7F5
:102C20003FFB204670BD000070B5134D686800285A
:102C300020D0124E00F0C8FA306820B1002400F015
:102C400093FC14B113E00124F9E700F0DBF9F0681C
:102C5000C468201D00F08EF9A868401EA86068684E
:102C6000401E686000F0EEF9204600F009F8686840
:102C70000028DFD170BD00002C000020443D002062
:102C800010B50446206B00F0F3F92046BDE8104073
:102C900000F0EEB94FF47051104810F0070F06D055
:102CA000C01D20F007000D49411AC1F570510C4AB2
:102CB0001060002353600144083921F00701103AE5
:102CC00011604B600B600B1A4360016040689060BC
:102CD00050604FF00040D060704700007C00002042
:102CE00018000020074E4FF08054074DFFF79CFF5F
:102CF00030680128FAD92C60BFF34F8FBFF36F8F74
:102D0000F4E700007C3C002004ED00E070B50446D0
:102D10001546002023180A5C83F834200A5C12B19F
:102D2000401C1028F6D3002684F84360072D00D3FA
:102D30000625E562E5642665201D00F039F904F1F9
:102D4000180000F035F92461C5F10700A061646244
:102D5000666584F8586070BD70B500240F4D04EBB3
:102D6000840005EB800000F018F9641C072CF6D3F2
:102D70000B4800F012F90B4800F00FF90A4800F078
:102D80000CF90A4800F009F9094800F006F9094869
:102D9000034901631431416370BD00007C3C002095
:102DA000083D00201C3D0020303D0020443D002017
:102DB000583D00202C00002010B4144900E01146BA
:102DC0000A688242FBD34B6803EB010C844503D1B4
:102DD00040681844486008460C68D0F804C00CEB02
:102DE0000003A3420CD10A4B1B689A4206D05268DA
:102DF000624442600A681268026002E0036000E018
:102E00000260814200D0086010BC704718000020AA
:102E1000080000200749086B0068002805D0086BEF
:102E2000C068C0684068886270474FF0FF308862B1
:102E3000704700002C0000200A484068B0F1FF3FB6
:102E400007D0502080F31188BFF34F8FBFF36F8FEF
:102E5000FEE7502080F31188BFF34F8FBFF36F8FD1
:102E6000FEE70000200000202DE9F0410546002685
:102E700000F0AAF9334F386808B9FFF70BFFF8687C
:102E800005424ED19DB1083515F0070F0FD005F062
:102E90000700C0F10800054415F0070F07D05020C7
:102EA00080F31188BFF34F8FBFF36F8FFEE7002DC4
:102EB00037D07868854234D823490846046801E051
:102EC000214604466068A84202D220680028F7D153
:102ED0003868844225D0086800F108062068086038
:102EE0006068411B10290FD9601910F0070F07D037
:102EF000502080F31188BFF34F8FBFF36F8FFEE731
:102F000041606560FFF758FF61687868401A786033
:102F1000BA68904200D2B860F86808436060002048
:102F2000206000F021FB16F0070F07D0502080F33F
:102F30001188BFF34F8FBFF36F8FFEE73046BDE8B8
:102F4000F08100000800002018000020001F4FF052
:102F500080730360001F0160001F05490160143881
:102F60000260001F6FF0020101602038704700000E
:102F7000392E00080169436882689A608368426854
:102F80005A604A68824201D182684A600022026126
:102F90000868401E08607047704700F108014160F2
:102FA0004FF0FF328260C160016100210160704713
:102FB00000210161704710B4D1F800C0BCF1FF3F9F
:102FC00002D000F1080202E0026904E01A465368E8
:102FD0001C686445FAD953684B6099608A605160F7
:102FE00008610168491C016010BC704742684A6072
:102FF00093688B6093685960916008610168491C0F
:1030000001607047502080F31188BFF34F8FBFF3EA
:103010006F8F0A494868401C486001280CD1084855
:10302000006810F0FF0F07D0502080F31188BFF325
:103030004F8FBFF36F8FFEE7704700002000002026
:1030400004ED00E009494868002806D0401E4860A9
:10305000002801D180F311887047502080F3118837
:10306000BFF34F8FBFF36F8FFEE7000020000020FB
:1030700070B5002827D0A0F10804134D6068E968F6
:10308000084207D1502080F31188BFF34F8FBFF360
:103090006F8FFEE722683AB1502080F31188BFF3AA
:1030A0004F8FBFF36F8FFEE78843606000F08CF8AE
:1030B00060686968084468602046FFF77DFEBDE8E7
:1030C000704000F051BA70BD0800002006484FF46F
:1030D0007A710068B0FBF1F0411E4FF0E0204161D1
:1030E00007210161704700000400002070B502460E
:1030F0000020002A22D0174CE06A38B1502080F31B
:103100001188BFF34F8FBFF36F8FFEE700F05CF8BD
:10311000E06885182068001DFFF72CFF48B920687B
:10312000012190F82C0001FA00F0216921EA000049
:1031300020612846FFF73CFD00F016FA002807D171
:1031400005494FF080500860BFF34F8FBFF36F8F7A
:1031500070BD00002C00002004ED00E010B584B02C
:1031600000240094019402942346802212A1144862
:10317000039400F0FDF8012809D000281AD150204E
:1031800080F31188BFF34F8FBFF36F8FFEE750209E
:1031900080F31188BFF34F8FBFF36F8F09484FF053
:1031A000FF31816201214161C46004B0BDE810407B
:1031B00000F04EB804B010BD49444C45000000007A
:1031C000E52C00082C0000200248C16A491CC1629D
:1031D000704700002C00002010B51B4CE06A00284E
:1031E00002D00120E06110BD0020E061206821686C
:1031F0000068096B884205D8206800F13401206816
:10320000FFF7CAFE2069B0FA80F0C0F11F000F4935
:1032100000EB800051F8202072B101EB8000416882
:103220004968416000F10802914201D1496841605A
:103230004068C068206010BD502080F31188BFF343
:103240004F8FBFF36F8FFEE72C0000207C3C0020E7
:1032500000B583B034480168344A914207D1502008
:1032600080F31188BFF34F8FBFF36F8FFEE70168C4
:103270002F48814207D1502080F31188BFF34F8F30
:10328000BFF36F8FFEE72B4908780290FF2008708C
:10329000087801909DF804009DF8042000F0F000EB
:1032A000904207D0502080F31188BFF34F8FBFF3B7
:1032B0006F8FFEE79DF804001F4A00F05000107069
:1032C000072090609DF8040010F0800F0BD09068EC
:1032D000401E90609DF80400400001909DF804009D
:1032E00010F0800FF3D1107A000200F4E0609060DB
:1032F000029808701148016841F47001016001688A
:1033000041F070410160FFF7E1FE00205060FCF7E2
:1033100065FF0B48016841F040410160FCF74EFF3A
:1033200003B0002000BD000000ED00E071C20F41BD
:1033300070C20F4100E400E02000002020ED00E01A
:1033400034EF00E010B5502080F31188BFF34F8FA9
:10335000BFF36F8F00F09EF818B104494FF0805012
:103360000860002080F3118810BD000004ED00E02B
:103370002DE9FF4F81B08146DDF844A00F9E0E9DE0
:1033800010999046B9F1000F09D0072D0FD35020A6
:1033900080F31188BFF34F8FBFF36F8FFEE750208C
:1033A00080F31188BFF34F8FBFF36F8FFEE7404666
:1033B000FFF71AFC04462D4F002C42D0206BA8F1D9
:1033C000010100EB810020F0070B53462A46CDF89F
:1033D000008020460299FFF799FC49465846049A16
:1033E000FFF7B4FD206006B13460FFF70BFEB8684C
:1033F000401CB860386810B1786938B10BE03C60A7
:10340000B868012807D1FFF7A7FC04E03868C06A54
:10341000A84200D83C60786A401C78626064E06A28
:1034200001213A69814011433961114900EB800063
:1034300001EB8000211DFFF7D9FD0124FFF702FEFB
:1034400001E04FF0FF34012C0CD1786950B138689D
:10345000C06AA84206D2074920070860BFF34F8F11
:10346000BFF36F8F05B02046BDE8F08F2C00002021
:103470007C3C002004ED00E005484169002903D0B0
:10348000C06A18B1002070470120704702207047C1
:103490002C0000202DE9F0470025314FF86A002864
:1034A00008D0B869401CB861F86900B10125284608
:1034B000BDE8F087F868401CF860FE689EB9386B7C
:1034C000006838B1502080F31188BFF34F8FBFF3ED
:1034D0006F8FFEE7386B796B39637863386A401C0D
:1034E0003862FFF797FCB86ADFF8788086420FD31E
:1034F0004FF00109386B006838B1386BC068C46898
:10350000606886420ED2B86202E04FF0FF30B862C7
:103510003868C06A00EB800058F820000128C3D941
:103520000125C1E7201DFFF725FDA06A18B104F1B0
:103530001800FFF71FFDE16A3A6909FA01F010432C
:10354000386101EB810008EB8000211DFFF74EFD83
:10355000E06A3968C96A8842CCD30125CAE700000D
:103560002C0000207C3C00202DE9F0474FF00008A3
:103570002C4DE86A002807D0FFF744FDE86A401E9A
:10358000E862E86A40B148E0502080F31188BFF358
:103590004F8FBFF36F8FFEE7A86800283DD0224F02
:1035A0000126386800B3A7F1B409F868C46804F1CB
:1035B0001800FFF7DFFC201DFFF7DCFCE06A2A693A
:1035C00006FA00F11143296100EB800009EB80004D
:1035D000211DFFF70BFDE06A2968C96A884200D304
:1035E000EE6138680028E0D1A86958B1A86948B1EF
:1035F000FFF750FF00B1EE61A869401EA861A869FD
:103600000028F5D1E869012807D18046074900075D
:103610000860BFF34F8FBFF36F8FFFF713FD404676
:10362000BDE8F0872C000020303D002004ED00E0D4
:103630000000000001020304010203040607080958
:103640005436000825200008010000000100000099
:1036500080000000557365725461736B00000000B8
:1036600080360008000000207C00000004290008CB
:10367000FC3600087C0000200C43000014290008E0
:10368000000000000024F400000000000000000022
:10369000000000000000000000000000000000002A
:1036A00000000000AAAAAAAA000000000000000072
:1036B000000000000000000000000000000000000A
:1036C00000000000000000000000000000000000FA
:1036D00000000000000000000000000000000000EA
:1036E0000000000000000000010000FF00000000DA
:0C36F000000000000000000000000000CE
:040000050800018965
:00000001FF
